{
  "transactions": [
    {
      "hash": "0xd489222a56f1e29887a4d0507d9470e7c4b11f5ae2e71f6d16ed382d20cd13fa",
      "transactionType": "CALL",
      "contractName": null,
      "contractAddress": "0x08341162Ea337B086dCa69E13ECf76F868F7025A",
      "function": "configureFranchiseLicensing(uint256,((bool,uint256),(address,bytes),(bool,uint256),(address,bytes),bool,address,string))",
      "arguments": [
        "250",
        "((true, 0), (0x0000000000000000000000000000000000000000, 0x00000000000000000000000000000000000000000000000000000000000000200000000000000000000000000000000000000000000000000000000000000000), (true, 0), (0x0000000000000000000000000000000000000000, 0x00000000000000000000000000000000000000000000000000000000000000200000000000000000000000000000000000000000000000000000000000000000), false, 0xB6288e57bf7406B35ab4F70Fd1135E907107e386, https://commercial.license)"
      ],
      "rpc": "https://eth-goerli.g.alchemy.com/v2/7WyRjkZW0XJmt7tb4OqO9YTp5z_iVl-o",
      "transaction": {
        "type": "0x02",
        "from": "0xb6288e57bf7406b35ab4f70fd1135e907107e386",
        "to": "0x08341162ea337b086dca69e13ecf76f868f7025a",
        "gas": "0x52377",
        "value": "0x0",
        "data": "0x4f0bf5b600000000000000000000000000000000000000000000000000000000000000fa00000000000000000000000000000000000000000000000000000000000000400000000000000000000000000000000000000000000000000000000000000001000000000000000000000000000000000000000000000000000000000000000000000000000000000000000000000000000000000000000000000000000001200000000000000000000000000000000000000000000000000000000000000001000000000000000000000000000000000000000000000000000000000000000000000000000000000000000000000000000000000000000000000000000001c00000000000000000000000000000000000000000000000000000000000000000000000000000000000000000b6288e57bf7406b35ab4f70fd1135e907107e38600000000000000000000000000000000000000000000000000000000000002600000000000000000000000000000000000000000000000000000000000000000000000000000000000000000000000000000000000000000000000000000004000000000000000000000000000000000000000000000000000000000000000400000000000000000000000000000000000000000000000000000000000000020000000000000000000000000000000000000000000000000000000000000000000000000000000000000000000000000000000000000000000000000000000000000000000000000000000000000000000000000000000000000000000000040000000000000000000000000000000000000000000000000000000000000004000000000000000000000000000000000000000000000000000000000000000200000000000000000000000000000000000000000000000000000000000000000000000000000000000000000000000000000000000000000000000000000001a68747470733a2f2f636f6d6d65726369616c2e6c6963656e7365000000000000",
        "nonce": "0x7b",
        "accessList": []
      },
      "additionalContracts": [],
      "isFixedGasLimit": false
    }
  ],
  "receipts": [],
  "libraries": [],
  "pending": [
    "0xd489222a56f1e29887a4d0507d9470e7c4b11f5ae2e71f6d16ed382d20cd13fa"
  ],
  "path": "/Users/drmanhattan/Workspace/StoryProtocol/protocol-contracts/broadcast/SetupFranchiseLicensing.s.sol/5/run-latest.json",
  "returns": {},
  "timestamp": 1697499962,
  "chain": 5,
  "multi": false,
  "commit": "4d5657c"
}