{
  "transactions": [
    {
      "hash": "0xd489222a56f1e29887a4d0507d9470e7c4b11f5ae2e71f6d16ed382d20cd13fa",
      "transactionType": "CALL",
      "contractName": null,
      "contractAddress": "0x08341162Ea337B086dCa69E13ECf76F868F7025A",
      "function": "configureFranchiseLicensing(uint256,((bool,uint256),(address,bytes),(bool,uint256),(address,bytes),bool,address,string))",
      "arguments": [
        "250",
        "((true, 0), (0x0000000000000000000000000000000000000000, 0x00000000000000000000000000000000000000000000000000000000000000200000000000000000000000000000000000000000000000000000000000000000), (true, 0), (0x0000000000000000000000000000000000000000, 0x00000000000000000000000000000000000000000000000000000000000000200000000000000000000000000000000000000000000000000000000000000000), false, 0xB6288e57bf7406B35ab4F70Fd1135E907107e386, https://commercial.license)"
      ],
      "rpc": "https://eth-goerli.g.alchemy.com/v2/7WyRjkZW0XJmt7tb4OqO9YTp5z_iVl-o",
      "transaction": {
        "type": "0x02",
        "from": "0xb6288e57bf7406b35ab4f70fd1135e907107e386",
        "to": "0x08341162ea337b086dca69e13ecf76f868f7025a",
        "gas": "0x52377",
        "value": "0x0",
        "data": "0x4f0bf5b600000000000000000000000000000000000000000000000000000000000000fa00000000000000000000000000000000000000000000000000000000000000400000000000000000000000000000000000000000000000000000000000000001000000000000000000000000000000000000000000000000000000000000000000000000000000000000000000000000000000000000000000000000000001200000000000000000000000000000000000000000000000000000000000000001000000000000000000000000000000000000000000000000000000000000000000000000000000000000000000000000000000000000000000000000000001c00000000000000000000000000000000000000000000000000000000000000000000000000000000000000000b6288e57bf7406b35ab4f70fd1135e907107e38600000000000000000000000000000000000000000000000000000000000002600000000000000000000000000000000000000000000000000000000000000000000000000000000000000000000000000000000000000000000000000000004000000000000000000000000000000000000000000000000000000000000000400000000000000000000000000000000000000000000000000000000000000020000000000000000000000000000000000000000000000000000000000000000000000000000000000000000000000000000000000000000000000000000000000000000000000000000000000000000000000000000000000000000000000040000000000000000000000000000000000000000000000000000000000000004000000000000000000000000000000000000000000000000000000000000000200000000000000000000000000000000000000000000000000000000000000000000000000000000000000000000000000000000000000000000000000000001a68747470733a2f2f636f6d6d65726369616c2e6c6963656e7365000000000000",
        "nonce": "0x7b",
        "accessList": []
      },
      "additionalContracts": [],
      "isFixedGasLimit": false
    }
  ],
  "receipts": [
    {
      "transactionHash": "0xd489222a56f1e29887a4d0507d9470e7c4b11f5ae2e71f6d16ed382d20cd13fa",
      "transactionIndex": "0x1",
      "blockHash": "0x172e87500b70c741f972f48644b58c753d80377ea24f3c8867890de073770fc7",
      "blockNumber": "0x96becb",
      "from": "0xB6288e57bf7406B35ab4F70Fd1135E907107e386",
      "to": "0x08341162Ea337B086dCa69E13ECf76F868F7025A",
      "cumulativeGasUsed": "0x40a68",
      "gasUsed": "0x3b860",
      "contractAddress": null,
      "logs": [
        {
          "address": "0x08341162Ea337B086dCa69E13ECf76F868F7025A",
          "topics": [
            "0xe6fbfbfdd71227edcd5ffab5dbc0fac8662dffc1be715c591efb2214665b9de5"
          ],
          "data": "0x00000000000000000000000000000000000000000000000000000000000000fa00000000000000000000000000000000000000000000000000000000000000400000000000000000000000000000000000000000000000000000000000000001000000000000000000000000000000000000000000000000000000000000000000000000000000000000000000000000000000000000000000000000000001200000000000000000000000000000000000000000000000000000000000000001000000000000000000000000000000000000000000000000000000000000000000000000000000000000000000000000000000000000000000000000000001c00000000000000000000000000000000000000000000000000000000000000000000000000000000000000000b6288e57bf7406b35ab4f70fd1135e907107e38600000000000000000000000000000000000000000000000000000000000002600000000000000000000000000000000000000000000000000000000000000000000000000000000000000000000000000000000000000000000000000000004000000000000000000000000000000000000000000000000000000000000000400000000000000000000000000000000000000000000000000000000000000020000000000000000000000000000000000000000000000000000000000000000000000000000000000000000000000000000000000000000000000000000000000000000000000000000000000000000000000000000000000000000000000040000000000000000000000000000000000000000000000000000000000000004000000000000000000000000000000000000000000000000000000000000000200000000000000000000000000000000000000000000000000000000000000000000000000000000000000000000000000000000000000000000000000000001a68747470733a2f2f636f6d6d65726369616c2e6c6963656e7365000000000000",
          "blockHash": "0x172e87500b70c741f972f48644b58c753d80377ea24f3c8867890de073770fc7",
          "blockNumber": "0x96becb",
          "transactionHash": "0xd489222a56f1e29887a4d0507d9470e7c4b11f5ae2e71f6d16ed382d20cd13fa",
          "transactionIndex": "0x1",
          "logIndex": "0x0",
          "removed": false
        }
      ],
      "status": "0x1",
      "logsBloom": "0x02000000000000000000000000000000000000000000000000000000000000000000000000000000000000000000000000000000000010000000000000000000000000000000000000000000400000000000000000000000000000000000000000000000000000008000000000000000000000000000000000000000000000000000000000400000000000000000000000000000000000000000000000000000000000000000000000001000000000000000000000000000000000000000000000000000000000000000000000000000000000000000000000000000000000000000000000000000000000000000000000000000000000000000000000000000",
      "type": "0x2",
      "effectiveGasPrice": "0xb2d05e08"
    }
  ],
  "libraries": [],
  "pending": [],
  "path": "/Users/drmanhattan/Workspace/StoryProtocol/protocol-contracts/broadcast/SetupFranchiseLicensing.s.sol/5/run-latest.json",
  "returns": {},
  "timestamp": 1697499975,
  "chain": 5,
  "multi": false,
  "commit": "4d5657c"
}