{
  "transactions": [
    {
      "hash": "0x4a29a2ca317a2fc999149389d9394c3bfebbd74d88ce62fd159d01e22f0fd26c",
      "transactionType": "CALL",
      "contractName": null,
      "contractAddress": "0xBAbD5B7E6104Da4482B60F76b6B6fC31DF9252e9",
      "function": "setRelationshipConfig(string,(uint8[],bool,uint8[],bool,bool,address,address,(uint112,uint112,bool))):(bytes32)",
      "arguments": [
        "TEST_RELATIONSHIP",
        "([1, 2, 3, 4, 5, 6], true, [1, 2, 3, 4, 5, 6], true, true, 0x379694d591cD310C3610EDb3D8D5CD625cA013a2, 0xB6288e57bf7406B35ab4F70Fd1135E907107e386, (0, 0, false))"
      ],
      "rpc": "https://eth-goerli.g.alchemy.com/v2/7WyRjkZW0XJmt7tb4OqO9YTp5z_iVl-o",
      "transaction": {
        "type": "0x02",
        "from": "0xb6288e57bf7406b35ab4f70fd1135e907107e386",
        "to": "0xbabd5b7e6104da4482b60f76b6b6fc31df9252e9",
        "gas": "0x19df8",
        "value": "0x0",
        "data": "0x44dd5e2a000000000000000000000000000000000000000000000000000000000000004000000000000000000000000000000000000000000000000000000000000000800000000000000000000000000000000000000000000000000000000000000011544553545f52454c4154494f4e5348495000000000000000000000000000000000000000000000000000000000000000000000000000000000000000000001400000000000000000000000000000000000000000000000000000000000000001000000000000000000000000000000000000000000000000000000000000022000000000000000000000000000000000000000000000000000000000000000010000000000000000000000000000000000000000000000000000000000000001000000000000000000000000379694d591cd310c3610edb3d8d5cd625ca013a2000000000000000000000000b6288e57bf7406b35ab4f70fd1135e907107e38600000000000000000000000000000000000000000000000000000000000000000000000000000000000000000000000000000000000000000000000000000000000000000000000000000000000000000000000000000000000000000000000000000000000000000000000000000000000000000000000000000000000000060000000000000000000000000000000000000000000000000000000000000001000000000000000000000000000000000000000000000000000000000000000200000000000000000000000000000000000000000000000000000000000000030000000000000000000000000000000000000000000000000000000000000004000000000000000000000000000000000000000000000000000000000000000500000000000000000000000000000000000000000000000000000000000000060000000000000000000000000000000000000000000000000000000000000006000000000000000000000000000000000000000000000000000000000000000100000000000000000000000000000000000000000000000000000000000000020000000000000000000000000000000000000000000000000000000000000003000000000000000000000000000000000000000000000000000000000000000400000000000000000000000000000000000000000000000000000000000000050000000000000000000000000000000000000000000000000000000000000006",
        "nonce": "0x78",
        "accessList": []
      },
      "additionalContracts": [],
      "isFixedGasLimit": false
    }
  ],
  "receipts": [],
  "libraries": [],
  "pending": [
    "0x4a29a2ca317a2fc999149389d9394c3bfebbd74d88ce62fd159d01e22f0fd26c"
  ],
  "path": "/Users/drmanhattan/Workspace/StoryProtocol/protocol-contracts/broadcast/SetTestRelationship.s.sol/5/run-latest.json",
  "returns": {},
  "timestamp": 1697162422,
  "chain": 5,
  "multi": false,
  "commit": "6217fe2"
}