{
  "transactions": [
    {
      "hash": "0xb7baf2b7308c9b0fe4846056e141f60ab0e6656d4c0e093f6e1e58234e31ea08",
      "transactionType": "CALL",
      "contractName": null,
      "contractAddress": "0xBAbD5B7E6104Da4482B60F76b6B6fC31DF9252e9",
      "function": "setRelationshipConfig(string,(uint8[],bool,uint8[],bool,bool,address,address,(uint112,uint112,bool))):(bytes32)",
      "arguments": [
        "TEST_RELATIONSHIP",
        "([1, 2, 3, 4, 5, 6], true, [1, 2, 3, 4, 5, 6], true, true, 0xA5ee53c74f75bB4A149c55d8A24E5dF563897B0f, 0xB6288e57bf7406B35ab4F70Fd1135E907107e386, (0, 0, false))"
      ],
      "rpc": "https://eth-goerli.g.alchemy.com/v2/7WyRjkZW0XJmt7tb4OqO9YTp5z_iVl-o",
      "transaction": {
        "type": "0x02",
        "from": "0xb6288e57bf7406b35ab4f70fd1135e907107e386",
        "to": "0xbabd5b7e6104da4482b60f76b6b6fc31df9252e9",
        "gas": "0x33c58",
        "value": "0x0",
        "data": "0x44dd5e2a000000000000000000000000000000000000000000000000000000000000004000000000000000000000000000000000000000000000000000000000000000800000000000000000000000000000000000000000000000000000000000000011544553545f52454c4154494f4e5348495000000000000000000000000000000000000000000000000000000000000000000000000000000000000000000001400000000000000000000000000000000000000000000000000000000000000001000000000000000000000000000000000000000000000000000000000000022000000000000000000000000000000000000000000000000000000000000000010000000000000000000000000000000000000000000000000000000000000001000000000000000000000000a5ee53c74f75bb4a149c55d8a24e5df563897b0f000000000000000000000000b6288e57bf7406b35ab4f70fd1135e907107e38600000000000000000000000000000000000000000000000000000000000000000000000000000000000000000000000000000000000000000000000000000000000000000000000000000000000000000000000000000000000000000000000000000000000000000000000000000000000000000000000000000000000000060000000000000000000000000000000000000000000000000000000000000001000000000000000000000000000000000000000000000000000000000000000200000000000000000000000000000000000000000000000000000000000000030000000000000000000000000000000000000000000000000000000000000004000000000000000000000000000000000000000000000000000000000000000500000000000000000000000000000000000000000000000000000000000000060000000000000000000000000000000000000000000000000000000000000006000000000000000000000000000000000000000000000000000000000000000100000000000000000000000000000000000000000000000000000000000000020000000000000000000000000000000000000000000000000000000000000003000000000000000000000000000000000000000000000000000000000000000400000000000000000000000000000000000000000000000000000000000000050000000000000000000000000000000000000000000000000000000000000006",
        "nonce": "0x6f",
        "accessList": []
      },
      "additionalContracts": [],
      "isFixedGasLimit": false
    }
  ],
  "receipts": [],
  "libraries": [],
  "pending": [
    "0xb7baf2b7308c9b0fe4846056e141f60ab0e6656d4c0e093f6e1e58234e31ea08"
  ],
  "path": "/Users/drmanhattan/Workspace/StoryProtocol/protocol-contracts/broadcast/SetTestRelationship.s.sol/5/run-latest.json",
  "returns": {},
  "timestamp": 1697137083,
  "chain": 5,
  "multi": false,
  "commit": "5bd60a5"
}