{
  "transactions": [
    {
      "hash": "0xae4f5234edf367c6af168f1c4de4e1259e59d2ab018c90617330de478d4d7f14",
      "transactionType": "CALL",
      "contractName": null,
      "contractAddress": "0xBAbD5B7E6104Da4482B60F76b6B6fC31DF9252e9",
      "function": "setRelationshipConfig(string,(uint8[],bool,uint8[],bool,bool,address,address,(uint112,uint112,bool))):(bytes32)",
      "arguments": [
        "APPEARS_IN",
        "([2, 4, 5, 6], false, [1], false, true, 0x5C10cC663aE967877dE42572a5FD9B823321F0F4, 0xB6288e57bf7406B35ab4F70Fd1135E907107e386, (0, 0, false))"
      ],
      "rpc": "https://eth-goerli.g.alchemy.com/v2/7WyRjkZW0XJmt7tb4OqO9YTp5z_iVl-o",
      "transaction": {
        "type": "0x02",
        "from": "0xb6288e57bf7406b35ab4f70fd1135e907107e386",
        "to": "0xbabd5b7e6104da4482b60f76b6b6fc31df9252e9",
        "gas": "0x323d4",
        "value": "0x0",
        "data": "0x44dd5e2a00000000000000000000000000000000000000000000000000000000000000400000000000000000000000000000000000000000000000000000000000000080000000000000000000000000000000000000000000000000000000000000000a415050454152535f494e000000000000000000000000000000000000000000000000000000000000000000000000000000000000000000000000000000000140000000000000000000000000000000000000000000000000000000000000000000000000000000000000000000000000000000000000000000000000000001e0000000000000000000000000000000000000000000000000000000000000000000000000000000000000000000000000000000000000000000000000000000010000000000000000000000005c10cc663ae967877de42572a5fd9b823321f0f4000000000000000000000000b6288e57bf7406b35ab4f70fd1135e907107e3860000000000000000000000000000000000000000000000000000000000000000000000000000000000000000000000000000000000000000000000000000000000000000000000000000000000000000000000000000000000000000000000000000000000000000000000000000000000000000000000000000000000000004000000000000000000000000000000000000000000000000000000000000000200000000000000000000000000000000000000000000000000000000000000040000000000000000000000000000000000000000000000000000000000000005000000000000000000000000000000000000000000000000000000000000000600000000000000000000000000000000000000000000000000000000000000010000000000000000000000000000000000000000000000000000000000000001",
        "nonce": "0x70",
        "accessList": []
      },
      "additionalContracts": [],
      "isFixedGasLimit": false
    }
  ],
  "receipts": [],
  "libraries": [],
  "pending": [
    "0xae4f5234edf367c6af168f1c4de4e1259e59d2ab018c90617330de478d4d7f14"
  ],
  "path": "/Users/drmanhattan/Workspace/StoryProtocol/protocol-contracts/broadcast/SetAppearsInRelationship.s.sol/5/run-latest.json",
  "returns": {},
  "timestamp": 1697137204,
  "chain": 5,
  "multi": false,
  "commit": "5bd60a5"
}