{
  "transactions": [
    {
      "hash": "0x1fe4f92911ece3b2e8586a3b523e76d5944adb2eca2ee3eb6451fb4d10a7049f",
      "transactionType": "CALL",
      "contractName": null,
      "contractAddress": "0xBAbD5B7E6104Da4482B60F76b6B6fC31DF9252e9",
      "function": "setRelationshipConfig(string,(uint8[],bool,uint8[],bool,bool,address,address,(uint112,uint112,bool))):(bytes32)",
      "arguments": [
        "APPEARS_IN",
        "([2, 4, 5, 6], false, [1], false, true, 0xfC367bb4047D7621B998C536E54Fa88838A6ACA9, 0xB6288e57bf7406B35ab4F70Fd1135E907107e386, (0, 0, false))"
      ],
      "rpc": "https://eth-goerli.g.alchemy.com/v2/7WyRjkZW0XJmt7tb4OqO9YTp5z_iVl-o",
      "transaction": {
        "type": "0x02",
        "from": "0xb6288e57bf7406b35ab4f70fd1135e907107e386",
        "to": "0xbabd5b7e6104da4482b60f76b6b6fc31df9252e9",
        "gas": "0x18574",
        "value": "0x0",
        "data": "0x44dd5e2a00000000000000000000000000000000000000000000000000000000000000400000000000000000000000000000000000000000000000000000000000000080000000000000000000000000000000000000000000000000000000000000000a415050454152535f494e000000000000000000000000000000000000000000000000000000000000000000000000000000000000000000000000000000000140000000000000000000000000000000000000000000000000000000000000000000000000000000000000000000000000000000000000000000000000000001e000000000000000000000000000000000000000000000000000000000000000000000000000000000000000000000000000000000000000000000000000000001000000000000000000000000fc367bb4047d7621b998c536e54fa88838a6aca9000000000000000000000000b6288e57bf7406b35ab4f70fd1135e907107e3860000000000000000000000000000000000000000000000000000000000000000000000000000000000000000000000000000000000000000000000000000000000000000000000000000000000000000000000000000000000000000000000000000000000000000000000000000000000000000000000000000000000000004000000000000000000000000000000000000000000000000000000000000000200000000000000000000000000000000000000000000000000000000000000040000000000000000000000000000000000000000000000000000000000000005000000000000000000000000000000000000000000000000000000000000000600000000000000000000000000000000000000000000000000000000000000010000000000000000000000000000000000000000000000000000000000000001",
        "nonce": "0x77",
        "accessList": []
      },
      "additionalContracts": [],
      "isFixedGasLimit": false
    }
  ],
  "receipts": [
    {
      "transactionHash": "0x1fe4f92911ece3b2e8586a3b523e76d5944adb2eca2ee3eb6451fb4d10a7049f",
      "transactionIndex": "0x1",
      "blockHash": "0x5239bcf0a0f357ff62e4ec3638b077d06d804bd835faab1679d32c6cf2ba54f1",
      "blockNumber": "0x966703",
      "from": "0xB6288e57bf7406B35ab4F70Fd1135E907107e386",
      "to": "0xBAbD5B7E6104Da4482B60F76b6B6fC31DF9252e9",
      "cumulativeGasUsed": "0x16bfe",
      "gasUsed": "0x119f6",
      "contractAddress": null,
      "logs": [
        {
          "address": "0xBAbD5B7E6104Da4482B60F76b6B6fC31DF9252e9",
          "topics": [
            "0x23d823dca554930dda2141543b0575ecace98e873be3b3fa7dbc7b7c2e8dba6d",
            "0x472511bc397e46b55b56292ba067168f2f5ceb640570883cadf0daafda894c1d"
          ],
          "data": "0x0000000000000000000000000000000000000000000000000000000000000100000000000000000000000000000000000000000000000000000000000000007400000000000000000000000000000000000000000000000000000000000000020000000000000000000000000000000000000000000000000000000000000001000000000000000000000000fc367bb4047d7621b998c536e54fa88838a6aca9000000000000000000000000000000000000000000000000000000000000000000000000000000000000000000000000000000000000000000000000000000000000000000000000000000000000000000000000000000000000000000000000000000000000000000000000000000000000000000000000000000000000000a415050454152535f494e00000000000000000000000000000000000000000000",
          "blockHash": "0x5239bcf0a0f357ff62e4ec3638b077d06d804bd835faab1679d32c6cf2ba54f1",
          "blockNumber": "0x966703",
          "transactionHash": "0x1fe4f92911ece3b2e8586a3b523e76d5944adb2eca2ee3eb6451fb4d10a7049f",
          "transactionIndex": "0x1",
          "logIndex": "0x0",
          "removed": false
        }
      ],
      "status": "0x1",
      "logsBloom": "0x00000000000000000000000000000000000000000000000000000000000000000000000000000000000000000000000000000000400000000000000000000000000000000000000000000000000000000000000008000000000000000000000000000000000000000000000008000000000000000000000000000000000000020000000000000000000000000000000000000000000000000000000000000000000000000000000000000000000000800000000000000000020100000000000000000000000000000000000000000000000000000000000000008000000000000000000000000000000000020000000000000000000000000000000000000000",
      "type": "0x2",
      "effectiveGasPrice": "0xb2d05e0b"
    }
  ],
  "libraries": [],
  "pending": [],
  "path": "/Users/drmanhattan/Workspace/StoryProtocol/protocol-contracts/broadcast/SetAppearsInRelationship.s.sol/5/run-latest.json",
  "returns": {},
  "timestamp": 1697162404,
  "chain": 5,
  "multi": false,
  "commit": "6217fe2"
}